{
  "_format": "hh-sol-artifact-1",
  "contractName": "Ecommerce",
  "sourceName": "contracts/Ecommerce.sol",
  "abi": [
    {
      "inputs": [
        {
          "internalType": "uint256",
          "name": "_productId",
          "type": "uint256"
        }
      ],
      "name": "buy",
      "outputs": [],
      "stateMutability": "payable",
      "type": "function"
    },
    {
      "inputs": [
        {
          "internalType": "uint256",
          "name": "_productId",
          "type": "uint256"
        }
      ],
      "name": "delivery",
      "outputs": [],
      "stateMutability": "nonpayable",
      "type": "function"
    },
    {
      "inputs": [],
      "name": "getProducts",
      "outputs": [
        {
          "components": [
            {
              "internalType": "string",
              "name": "title",
              "type": "string"
            },
            {
              "internalType": "string",
              "name": "desc",
              "type": "string"
            },
            {
              "internalType": "address payable",
              "name": "seller",
              "type": "address"
            },
            {
              "internalType": "uint256",
              "name": "productId",
              "type": "uint256"
            },
            {
              "internalType": "uint256",
              "name": "price",
              "type": "uint256"
            },
            {
              "internalType": "address",
              "name": "buyer",
              "type": "address"
            },
            {
              "internalType": "bool",
              "name": "delivered",
              "type": "bool"
            }
          ],
          "internalType": "struct Ecommerce.Product[]",
          "name": "",
          "type": "tuple[]"
        }
      ],
      "stateMutability": "view",
      "type": "function"
    },
    {
      "inputs": [
        {
          "internalType": "uint256",
          "name": "",
          "type": "uint256"
        }
      ],
      "name": "products",
      "outputs": [
        {
          "internalType": "string",
          "name": "title",
          "type": "string"
        },
        {
          "internalType": "string",
          "name": "desc",
          "type": "string"
        },
        {
          "internalType": "address payable",
          "name": "seller",
          "type": "address"
        },
        {
          "internalType": "uint256",
          "name": "productId",
          "type": "uint256"
        },
        {
          "internalType": "uint256",
          "name": "price",
          "type": "uint256"
        },
        {
          "internalType": "address",
          "name": "buyer",
          "type": "address"
        },
        {
          "internalType": "bool",
          "name": "delivered",
          "type": "bool"
        }
      ],
      "stateMutability": "view",
      "type": "function"
    },
    {
      "inputs": [
        {
          "internalType": "string",
          "name": "_title",
          "type": "string"
        },
        {
          "internalType": "string",
          "name": "_desc",
          "type": "string"
        },
        {
          "internalType": "uint256",
          "name": "_price",
          "type": "uint256"
        }
      ],
      "name": "registerProduct",
      "outputs": [],
      "stateMutability": "nonpayable",
      "type": "function"
    }
  ],
  "bytecode": "0x6080604052600160005534801561001557600080fd5b506115a0806100256000396000f3fe60806040526004361061004a5760003560e01c80631144fd721461004f5780633153a15b146100785780637acc0b20146100a1578063c29b2f20146100e4578063d96a094a1461010f575b600080fd5b34801561005b57600080fd5b5061007660048036038101906100719190610dc5565b61012b565b005b34801561008457600080fd5b5061009f600480360381019061009a9190610d46565b610394565b005b3480156100ad57600080fd5b506100c860048036038101906100c39190610dc5565b610599565b6040516100db979695949392919061114c565b60405180910390f35b3480156100f057600080fd5b506100f9610748565b604051610106919061112a565b60405180910390f35b61012960048036038101906101249190610dc5565b6109a6565b005b3373ffffffffffffffffffffffffffffffffffffffff1660018083610150919061136a565b81548110610187577f4e487b7100000000000000000000000000000000000000000000000000000000600052603260045260246000fd5b906000526020600020906006020160050160009054906101000a900473ffffffffffffffffffffffffffffffffffffffff1673ffffffffffffffffffffffffffffffffffffffff161461020f576040517f08c379a000000000000000000000000000000000000000000000000000000000815260040161020690611229565b60405180910390fd5b60018060018361021f919061136a565b81548110610256577f4e487b7100000000000000000000000000000000000000000000000000000000600052603260045260246000fd5b906000526020600020906006020160050160146101000a81548160ff0219169083151502179055506001808261028c919061136a565b815481106102c3577f4e487b7100000000000000000000000000000000000000000000000000000000600052603260045260246000fd5b906000526020600020906006020160020160009054906101000a900473ffffffffffffffffffffffffffffffffffffffff1673ffffffffffffffffffffffffffffffffffffffff166108fc6001808461031c919061136a565b81548110610353577f4e487b7100000000000000000000000000000000000000000000000000000000600052603260045260246000fd5b9060005260206000209060060201600401549081150290604051600060405180830381858888f19350505050158015610390573d6000803e3d6000fd5b5050565b600081116103d7576040517f08c379a00000000000000000000000000000000000000000000000000000000081526004016103ce906111c9565b60405180910390fd5b6103df610bbb565b838160000181905250828160200181905250670de0b6b3a7640000826104059190611310565b81608001818152505033816040019073ffffffffffffffffffffffffffffffffffffffff16908173ffffffffffffffffffffffffffffffffffffffff16815250506000548160600181815250506001819080600181540180825580915050600190039060005260206000209060060201600090919091909150600082015181600001908051906020019061049a929190610c26565b5060208201518160010190805190602001906104b7929190610c26565b5060408201518160020160006101000a81548173ffffffffffffffffffffffffffffffffffffffff021916908373ffffffffffffffffffffffffffffffffffffffff160217905550606082015181600301556080820151816004015560a08201518160050160006101000a81548173ffffffffffffffffffffffffffffffffffffffff021916908373ffffffffffffffffffffffffffffffffffffffff16021790555060c08201518160050160146101000a81548160ff021916908315150217905550505060008081548092919061058e9061146c565b919050555050505050565b600181815481106105a957600080fd5b90600052602060002090600602016000915090508060000180546105cc9061143a565b80601f01602080910402602001604051908101604052809291908181526020018280546105f89061143a565b80156106455780601f1061061a57610100808354040283529160200191610645565b820191906000526020600020905b81548152906001019060200180831161062857829003601f168201915b50505050509080600101805461065a9061143a565b80601f01602080910402602001604051908101604052809291908181526020018280546106869061143a565b80156106d35780601f106106a8576101008083540402835291602001916106d3565b820191906000526020600020905b8154815290600101906020018083116106b657829003601f168201915b5050505050908060020160009054906101000a900473ffffffffffffffffffffffffffffffffffffffff16908060030154908060040154908060050160009054906101000a900473ffffffffffffffffffffffffffffffffffffffff16908060050160149054906101000a900460ff16905087565b60606001805480602002602001604051908101604052809291908181526020016000905b8282101561099d57838290600052602060002090600602016040518060e001604052908160008201805461079f9061143a565b80601f01602080910402602001604051908101604052809291908181526020018280546107cb9061143a565b80156108185780601f106107ed57610100808354040283529160200191610818565b820191906000526020600020905b8154815290600101906020018083116107fb57829003601f168201915b505050505081526020016001820180546108319061143a565b80601f016020809104026020016040519081016040528092919081815260200182805461085d9061143a565b80156108aa5780601f1061087f576101008083540402835291602001916108aa565b820191906000526020600020905b81548152906001019060200180831161088d57829003601f168201915b505050505081526020016002820160009054906101000a900473ffffffffffffffffffffffffffffffffffffffff1673ffffffffffffffffffffffffffffffffffffffff1673ffffffffffffffffffffffffffffffffffffffff16815260200160038201548152602001600482015481526020016005820160009054906101000a900473ffffffffffffffffffffffffffffffffffffffff1673ffffffffffffffffffffffffffffffffffffffff1673ffffffffffffffffffffffffffffffffffffffff1681526020016005820160149054906101000a900460ff1615151515815250508152602001906001019061076c565b50505050905090565b34600180836109b5919061136a565b815481106109ec577f4e487b7100000000000000000000000000000000000000000000000000000000600052603260045260246000fd5b90600052602060002090600602016004015411610a3e576040517f08c379a0000000000000000000000000000000000000000000000000000000008152600401610a3590611209565b60405180910390fd5b3373ffffffffffffffffffffffffffffffffffffffff1660018083610a63919061136a565b81548110610a9a577f4e487b7100000000000000000000000000000000000000000000000000000000600052603260045260246000fd5b906000526020600020906006020160020160009054906101000a900473ffffffffffffffffffffffffffffffffffffffff1673ffffffffffffffffffffffffffffffffffffffff161415610b23576040517f08c379a0000000000000000000000000000000000000000000000000000000008152600401610b1a906111e9565b60405180910390fd5b3360018083610b32919061136a565b81548110610b69577f4e487b7100000000000000000000000000000000000000000000000000000000600052603260045260246000fd5b906000526020600020906006020160050160006101000a81548173ffffffffffffffffffffffffffffffffffffffff021916908373ffffffffffffffffffffffffffffffffffffffff16021790555050565b6040518060e001604052806060815260200160608152602001600073ffffffffffffffffffffffffffffffffffffffff1681526020016000815260200160008152602001600073ffffffffffffffffffffffffffffffffffffffff1681526020016000151581525090565b828054610c329061143a565b90600052602060002090601f016020900481019282610c545760008555610c9b565b82601f10610c6d57805160ff1916838001178555610c9b565b82800160010185558215610c9b579182015b82811115610c9a578251825591602001919060010190610c7f565b5b509050610ca89190610cac565b5090565b5b80821115610cc5576000816000905550600101610cad565b5090565b6000610cdc610cd78461127a565b611249565b905082815260208101848484011115610cf457600080fd5b610cff8482856113f8565b509392505050565b600082601f830112610d1857600080fd5b8135610d28848260208601610cc9565b91505092915050565b600081359050610d4081611553565b92915050565b600080600060608486031215610d5b57600080fd5b600084013567ffffffffffffffff811115610d7557600080fd5b610d8186828701610d07565b935050602084013567ffffffffffffffff811115610d9e57600080fd5b610daa86828701610d07565b9250506040610dbb86828701610d31565b9150509250925092565b600060208284031215610dd757600080fd5b6000610de584828501610d31565b91505092915050565b6000610dfa8383611069565b905092915050565b610e0b816113b0565b82525050565b610e1a816113b0565b82525050565b610e298161139e565b82525050565b610e388161139e565b82525050565b6000610e49826112ba565b610e5381856112dd565b935083602082028501610e65856112aa565b8060005b85811015610ea15784840389528151610e828582610dee565b9450610e8d836112d0565b925060208a01995050600181019050610e69565b50829750879550505050505092915050565b610ebc816113c2565b82525050565b610ecb816113c2565b82525050565b6000610edc826112c5565b610ee681856112ee565b9350610ef6818560208601611407565b610eff81611542565b840191505092915050565b6000610f15826112c5565b610f1f81856112ff565b9350610f2f818560208601611407565b610f3881611542565b840191505092915050565b6000610f506021836112ff565b91507f50726963652073686f756c642062652067726561746572207468616e205a657260008301527f6f000000000000000000000000000000000000000000000000000000000000006020830152604082019050919050565b6000610fb6601a836112ff565b91507f53656c6c65722043616e6e6f74206265636f6d652042757965720000000000006000830152602082019050919050565b6000610ff66016836112ff565b91507f506c65617365205061792045786163742056616c7565000000000000000000006000830152602082019050919050565b6000611036601e836112ff565b91507f53656c6c65722063616e6e6f7420636f6e6669726d2064656c697665727900006000830152602082019050919050565b600060e08301600083015184820360008601526110868282610ed1565b915050602083015184820360208601526110a08282610ed1565b91505060408301516110b56040860182610e02565b5060608301516110c8606086018261110c565b5060808301516110db608086018261110c565b5060a08301516110ee60a0860182610e20565b5060c083015161110160c0860182610eb3565b508091505092915050565b611115816113ee565b82525050565b611124816113ee565b82525050565b600060208201905081810360008301526111448184610e3e565b905092915050565b600060e0820190508181036000830152611166818a610f0a565b9050818103602083015261117a8189610f0a565b90506111896040830188610e11565b611196606083018761111b565b6111a3608083018661111b565b6111b060a0830185610e2f565b6111bd60c0830184610ec2565b98975050505050505050565b600060208201905081810360008301526111e281610f43565b9050919050565b6000602082019050818103600083015261120281610fa9565b9050919050565b6000602082019050818103600083015261122281610fe9565b9050919050565b6000602082019050818103600083015261124281611029565b9050919050565b6000604051905081810181811067ffffffffffffffff821117156112705761126f611513565b5b8060405250919050565b600067ffffffffffffffff82111561129557611294611513565b5b601f19601f8301169050602081019050919050565b6000819050602082019050919050565b600081519050919050565b600081519050919050565b6000602082019050919050565b600082825260208201905092915050565b600082825260208201905092915050565b600082825260208201905092915050565b600061131b826113ee565b9150611326836113ee565b9250817fffffffffffffffffffffffffffffffffffffffffffffffffffffffffffffffff048311821515161561135f5761135e6114b5565b5b828202905092915050565b6000611375826113ee565b9150611380836113ee565b925082821015611393576113926114b5565b5b828203905092915050565b60006113a9826113ce565b9050919050565b60006113bb826113ce565b9050919050565b60008115159050919050565b600073ffffffffffffffffffffffffffffffffffffffff82169050919050565b6000819050919050565b82818337600083830152505050565b60005b8381101561142557808201518184015260208101905061140a565b83811115611434576000848401525b50505050565b6000600282049050600182168061145257607f821691505b60208210811415611466576114656114e4565b5b50919050565b6000611477826113ee565b91507fffffffffffffffffffffffffffffffffffffffffffffffffffffffffffffffff8214156114aa576114a96114b5565b5b600182019050919050565b7f4e487b7100000000000000000000000000000000000000000000000000000000600052601160045260246000fd5b7f4e487b7100000000000000000000000000000000000000000000000000000000600052602260045260246000fd5b7f4e487b7100000000000000000000000000000000000000000000000000000000600052604160045260246000fd5b6000601f19601f8301169050919050565b61155c816113ee565b811461156757600080fd5b5056fea264697066735822122093eb880690a774681c46f673654de9492e3ce235bf73715cd7fe9433de472e5264736f6c63430008000033",
  "linkReferences": {},
  "deployedLinkReferences": {}
}